{
  "_format": "hh-sol-artifact-1",
  "contractName": "TheRetros",
  "sourceName": "contracts/TheRetros.sol",
  "abi": [
    {
      "inputs": [
        {
          "internalType": "string",
          "name": "_tokenName",
          "type": "string"
        },
        {
          "internalType": "string",
          "name": "_tokenSymbol",
          "type": "string"
        },
        {
          "internalType": "uint256",
          "name": "_maxSupply",
          "type": "uint256"
        },
        {
          "internalType": "uint256",
          "name": "_maxMintAmountPerTx",
          "type": "uint256"
        },
        {
          "internalType": "string",
          "name": "_hiddenMetadataUri",
          "type": "string"
        }
      ],
      "stateMutability": "nonpayable",
      "type": "constructor"
    },
    {
      "inputs": [],
      "name": "ApprovalCallerNotOwnerNorApproved",
      "type": "error"
    },
    {
      "inputs": [],
      "name": "ApprovalQueryForNonexistentToken",
      "type": "error"
    },
    {
      "inputs": [],
      "name": "ApprovalToCurrentOwner",
      "type": "error"
    },
    {
      "inputs": [],
      "name": "ApproveToCaller",
      "type": "error"
    },
    {
      "inputs": [],
      "name": "BalanceQueryForZeroAddress",
      "type": "error"
    },
    {
      "inputs": [],
      "name": "InvalidQueryRange",
      "type": "error"
    },
    {
      "inputs": [],
      "name": "MintToZeroAddress",
      "type": "error"
    },
    {
      "inputs": [],
      "name": "MintZeroQuantity",
      "type": "error"
    },
    {
      "inputs": [],
      "name": "OwnerQueryForNonexistentToken",
      "type": "error"
    },
    {
      "inputs": [],
      "name": "TransferCallerNotOwnerNorApproved",
      "type": "error"
    },
    {
      "inputs": [],
      "name": "TransferFromIncorrectOwner",
      "type": "error"
    },
    {
      "inputs": [],
      "name": "TransferToNonERC721ReceiverImplementer",
      "type": "error"
    },
    {
      "inputs": [],
      "name": "TransferToZeroAddress",
      "type": "error"
    },
    {
      "inputs": [],
      "name": "URIQueryForNonexistentToken",
      "type": "error"
    },
    {
      "anonymous": false,
      "inputs": [
        {
          "indexed": true,
          "internalType": "address",
          "name": "owner",
          "type": "address"
        },
        {
          "indexed": true,
          "internalType": "address",
          "name": "approved",
          "type": "address"
        },
        {
          "indexed": true,
          "internalType": "uint256",
          "name": "tokenId",
          "type": "uint256"
        }
      ],
      "name": "Approval",
      "type": "event"
    },
    {
      "anonymous": false,
      "inputs": [
        {
          "indexed": true,
          "internalType": "address",
          "name": "owner",
          "type": "address"
        },
        {
          "indexed": true,
          "internalType": "address",
          "name": "operator",
          "type": "address"
        },
        {
          "indexed": false,
          "internalType": "bool",
          "name": "approved",
          "type": "bool"
        }
      ],
      "name": "ApprovalForAll",
      "type": "event"
    },
    {
      "anonymous": false,
      "inputs": [
        {
          "indexed": true,
          "internalType": "address",
          "name": "previousOwner",
          "type": "address"
        },
        {
          "indexed": true,
          "internalType": "address",
          "name": "newOwner",
          "type": "address"
        }
      ],
      "name": "OwnershipTransferred",
      "type": "event"
    },
    {
      "anonymous": false,
      "inputs": [
        {
          "indexed": true,
          "internalType": "address",
          "name": "from",
          "type": "address"
        },
        {
          "indexed": true,
          "internalType": "address",
          "name": "to",
          "type": "address"
        },
        {
          "indexed": true,
          "internalType": "uint256",
          "name": "tokenId",
          "type": "uint256"
        }
      ],
      "name": "Transfer",
      "type": "event"
    },
    {
      "inputs": [
        {
          "internalType": "address",
          "name": "to",
          "type": "address"
        },
        {
          "internalType": "uint256",
          "name": "tokenId",
          "type": "uint256"
        }
      ],
      "name": "approve",
      "outputs": [],
      "stateMutability": "nonpayable",
      "type": "function"
    },
    {
      "inputs": [
        {
          "internalType": "address",
          "name": "owner",
          "type": "address"
        }
      ],
      "name": "balanceOf",
      "outputs": [
        {
          "internalType": "uint256",
          "name": "",
          "type": "uint256"
        }
      ],
      "stateMutability": "view",
      "type": "function"
    },
    {
      "inputs": [
        {
          "internalType": "uint256",
          "name": "_mintAmount",
          "type": "uint256"
        }
      ],
      "name": "checkCost",
      "outputs": [
        {
          "internalType": "uint256",
          "name": "price",
          "type": "uint256"
        }
      ],
      "stateMutability": "view",
      "type": "function"
    },
    {
      "inputs": [],
      "name": "cost1",
      "outputs": [
        {
          "internalType": "uint256",
          "name": "",
          "type": "uint256"
        }
      ],
      "stateMutability": "view",
      "type": "function"
    },
    {
      "inputs": [],
      "name": "cost2",
      "outputs": [
        {
          "internalType": "uint256",
          "name": "",
          "type": "uint256"
        }
      ],
      "stateMutability": "view",
      "type": "function"
    },
    {
      "inputs": [
        {
          "internalType": "uint256",
          "name": "tokenId",
          "type": "uint256"
        }
      ],
      "name": "explicitOwnershipOf",
      "outputs": [
        {
          "components": [
            {
              "internalType": "address",
              "name": "addr",
              "type": "address"
            },
            {
              "internalType": "uint64",
              "name": "startTimestamp",
              "type": "uint64"
            },
            {
              "internalType": "bool",
              "name": "burned",
              "type": "bool"
            }
          ],
          "internalType": "struct IERC721A.TokenOwnership",
          "name": "",
          "type": "tuple"
        }
      ],
      "stateMutability": "view",
      "type": "function"
    },
    {
      "inputs": [
        {
          "internalType": "uint256[]",
          "name": "tokenIds",
          "type": "uint256[]"
        }
      ],
      "name": "explicitOwnershipsOf",
      "outputs": [
        {
          "components": [
            {
              "internalType": "address",
              "name": "addr",
              "type": "address"
            },
            {
              "internalType": "uint64",
              "name": "startTimestamp",
              "type": "uint64"
            },
            {
              "internalType": "bool",
              "name": "burned",
              "type": "bool"
            }
          ],
          "internalType": "struct IERC721A.TokenOwnership[]",
          "name": "",
          "type": "tuple[]"
        }
      ],
      "stateMutability": "view",
      "type": "function"
    },
    {
      "inputs": [
        {
          "internalType": "uint256",
          "name": "tokenId",
          "type": "uint256"
        }
      ],
      "name": "getApproved",
      "outputs": [
        {
          "internalType": "address",
          "name": "",
          "type": "address"
        }
      ],
      "stateMutability": "view",
      "type": "function"
    },
    {
      "inputs": [],
      "name": "hiddenMetadataUri",
      "outputs": [
        {
          "internalType": "string",
          "name": "",
          "type": "string"
        }
      ],
      "stateMutability": "view",
      "type": "function"
    },
    {
      "inputs": [
        {
          "internalType": "address",
          "name": "owner",
          "type": "address"
        },
        {
          "internalType": "address",
          "name": "operator",
          "type": "address"
        }
      ],
      "name": "isApprovedForAll",
      "outputs": [
        {
          "internalType": "bool",
          "name": "",
          "type": "bool"
        }
      ],
      "stateMutability": "view",
      "type": "function"
    },
    {
      "inputs": [],
      "name": "maxMintAmountPerTx",
      "outputs": [
        {
          "internalType": "uint256",
          "name": "",
          "type": "uint256"
        }
      ],
      "stateMutability": "view",
      "type": "function"
    },
    {
      "inputs": [],
      "name": "maxSupply",
      "outputs": [
        {
          "internalType": "uint256",
          "name": "",
          "type": "uint256"
        }
      ],
      "stateMutability": "view",
      "type": "function"
    },
    {
      "inputs": [],
      "name": "merkleRoot",
      "outputs": [
        {
          "internalType": "bytes32",
          "name": "",
          "type": "bytes32"
        }
      ],
      "stateMutability": "view",
      "type": "function"
    },
    {
      "inputs": [
        {
          "internalType": "uint256",
          "name": "_mintAmount",
          "type": "uint256"
        }
      ],
      "name": "mint",
      "outputs": [],
      "stateMutability": "payable",
      "type": "function"
    },
    {
      "inputs": [
        {
          "internalType": "uint256",
          "name": "_mintAmount",
          "type": "uint256"
        },
        {
          "internalType": "address",
          "name": "_receiver",
          "type": "address"
        }
      ],
      "name": "mintForAddress",
      "outputs": [],
      "stateMutability": "nonpayable",
      "type": "function"
    },
    {
      "inputs": [],
      "name": "name",
      "outputs": [
        {
          "internalType": "string",
          "name": "",
          "type": "string"
        }
      ],
      "stateMutability": "view",
      "type": "function"
    },
    {
      "inputs": [],
      "name": "owner",
      "outputs": [
        {
          "internalType": "address",
          "name": "",
          "type": "address"
        }
      ],
      "stateMutability": "view",
      "type": "function"
    },
    {
      "inputs": [
        {
          "internalType": "uint256",
          "name": "tokenId",
          "type": "uint256"
        }
      ],
      "name": "ownerOf",
      "outputs": [
        {
          "internalType": "address",
          "name": "",
          "type": "address"
        }
      ],
      "stateMutability": "view",
      "type": "function"
    },
    {
      "inputs": [],
      "name": "paused",
      "outputs": [
        {
          "internalType": "bool",
          "name": "",
          "type": "bool"
        }
      ],
      "stateMutability": "view",
      "type": "function"
    },
    {
      "inputs": [],
      "name": "renounceOwnership",
      "outputs": [],
      "stateMutability": "nonpayable",
      "type": "function"
    },
    {
      "inputs": [],
      "name": "revealed",
      "outputs": [
        {
          "internalType": "bool",
          "name": "",
          "type": "bool"
        }
      ],
      "stateMutability": "view",
      "type": "function"
    },
    {
      "inputs": [
        {
          "internalType": "address",
          "name": "from",
          "type": "address"
        },
        {
          "internalType": "address",
          "name": "to",
          "type": "address"
        },
        {
          "internalType": "uint256",
          "name": "tokenId",
          "type": "uint256"
        }
      ],
      "name": "safeTransferFrom",
      "outputs": [],
      "stateMutability": "nonpayable",
      "type": "function"
    },
    {
      "inputs": [
        {
          "internalType": "address",
          "name": "from",
          "type": "address"
        },
        {
          "internalType": "address",
          "name": "to",
          "type": "address"
        },
        {
          "internalType": "uint256",
          "name": "tokenId",
          "type": "uint256"
        },
        {
          "internalType": "bytes",
          "name": "_data",
          "type": "bytes"
        }
      ],
      "name": "safeTransferFrom",
      "outputs": [],
      "stateMutability": "nonpayable",
      "type": "function"
    },
    {
      "inputs": [
        {
          "internalType": "address",
          "name": "operator",
          "type": "address"
        },
        {
          "internalType": "bool",
          "name": "approved",
          "type": "bool"
        }
      ],
      "name": "setApprovalForAll",
      "outputs": [],
      "stateMutability": "nonpayable",
      "type": "function"
    },
    {
      "inputs": [
        {
          "internalType": "uint256",
          "name": "_cost",
          "type": "uint256"
        }
      ],
      "name": "setCost1",
      "outputs": [],
      "stateMutability": "nonpayable",
      "type": "function"
    },
    {
      "inputs": [
        {
          "internalType": "uint256",
          "name": "_cost",
          "type": "uint256"
        }
      ],
      "name": "setCost2",
      "outputs": [],
      "stateMutability": "nonpayable",
      "type": "function"
    },
    {
      "inputs": [
        {
          "internalType": "string",
          "name": "_hiddenMetadataUri",
          "type": "string"
        }
      ],
      "name": "setHiddenMetadataUri",
      "outputs": [],
      "stateMutability": "nonpayable",
      "type": "function"
    },
    {
      "inputs": [
        {
          "internalType": "uint256",
          "name": "_maxMintAmountPerTx",
          "type": "uint256"
        }
      ],
      "name": "setMaxMintAmountPerTx",
      "outputs": [],
      "stateMutability": "nonpayable",
      "type": "function"
    },
    {
      "inputs": [
        {
          "internalType": "bytes32",
          "name": "_merkleRoot",
          "type": "bytes32"
        }
      ],
      "name": "setMerkleRoot",
      "outputs": [],
      "stateMutability": "nonpayable",
      "type": "function"
    },
    {
      "inputs": [
        {
          "internalType": "bool",
          "name": "_state",
          "type": "bool"
        }
      ],
      "name": "setPaused",
      "outputs": [],
      "stateMutability": "nonpayable",
      "type": "function"
    },
    {
      "inputs": [
        {
          "internalType": "bool",
          "name": "_state",
          "type": "bool"
        }
      ],
      "name": "setRevealed",
      "outputs": [],
      "stateMutability": "nonpayable",
      "type": "function"
    },
    {
      "inputs": [
        {
          "internalType": "string",
          "name": "_uriPrefix",
          "type": "string"
        }
      ],
      "name": "setUriPrefix",
      "outputs": [],
      "stateMutability": "nonpayable",
      "type": "function"
    },
    {
      "inputs": [
        {
          "internalType": "string",
          "name": "_uriSuffix",
          "type": "string"
        }
      ],
      "name": "setUriSuffix",
      "outputs": [],
      "stateMutability": "nonpayable",
      "type": "function"
    },
    {
      "inputs": [
        {
          "internalType": "bool",
          "name": "_state",
          "type": "bool"
        }
      ],
      "name": "setWhitelistMintEnabled",
      "outputs": [],
      "stateMutability": "nonpayable",
      "type": "function"
    },
    {
      "inputs": [
        {
          "internalType": "bytes4",
          "name": "interfaceId",
          "type": "bytes4"
        }
      ],
      "name": "supportsInterface",
      "outputs": [
        {
          "internalType": "bool",
          "name": "",
          "type": "bool"
        }
      ],
      "stateMutability": "view",
      "type": "function"
    },
    {
      "inputs": [],
      "name": "symbol",
      "outputs": [
        {
          "internalType": "string",
          "name": "",
          "type": "string"
        }
      ],
      "stateMutability": "view",
      "type": "function"
    },
    {
      "inputs": [
        {
          "internalType": "uint256",
          "name": "_tokenId",
          "type": "uint256"
        }
      ],
      "name": "tokenURI",
      "outputs": [
        {
          "internalType": "string",
          "name": "",
          "type": "string"
        }
      ],
      "stateMutability": "view",
      "type": "function"
    },
    {
      "inputs": [
        {
          "internalType": "address",
          "name": "owner",
          "type": "address"
        }
      ],
      "name": "tokensOfOwner",
      "outputs": [
        {
          "internalType": "uint256[]",
          "name": "",
          "type": "uint256[]"
        }
      ],
      "stateMutability": "view",
      "type": "function"
    },
    {
      "inputs": [
        {
          "internalType": "address",
          "name": "owner",
          "type": "address"
        },
        {
          "internalType": "uint256",
          "name": "start",
          "type": "uint256"
        },
        {
          "internalType": "uint256",
          "name": "stop",
          "type": "uint256"
        }
      ],
      "name": "tokensOfOwnerIn",
      "outputs": [
        {
          "internalType": "uint256[]",
          "name": "",
          "type": "uint256[]"
        }
      ],
      "stateMutability": "view",
      "type": "function"
    },
    {
      "inputs": [],
      "name": "totalSupply",
      "outputs": [
        {
          "internalType": "uint256",
          "name": "",
          "type": "uint256"
        }
      ],
      "stateMutability": "view",
      "type": "function"
    },
    {
      "inputs": [
        {
          "internalType": "address",
          "name": "from",
          "type": "address"
        },
        {
          "internalType": "address",
          "name": "to",
          "type": "address"
        },
        {
          "internalType": "uint256",
          "name": "tokenId",
          "type": "uint256"
        }
      ],
      "name": "transferFrom",
      "outputs": [],
      "stateMutability": "nonpayable",
      "type": "function"
    },
    {
      "inputs": [
        {
          "internalType": "address",
          "name": "newOwner",
          "type": "address"
        }
      ],
      "name": "transferOwnership",
      "outputs": [],
      "stateMutability": "nonpayable",
      "type": "function"
    },
    {
      "inputs": [],
      "name": "uriPrefix",
      "outputs": [
        {
          "internalType": "string",
          "name": "",
          "type": "string"
        }
      ],
      "stateMutability": "view",
      "type": "function"
    },
    {
      "inputs": [],
      "name": "uriSuffix",
      "outputs": [
        {
          "internalType": "string",
          "name": "",
          "type": "string"
        }
      ],
      "stateMutability": "view",
      "type": "function"
    },
    {
      "inputs": [
        {
          "internalType": "address",
          "name": "",
          "type": "address"
        }
      ],
      "name": "whitelistClaimed",
      "outputs": [
        {
          "internalType": "bool",
          "name": "",
          "type": "bool"
        }
      ],
      "stateMutability": "view",
      "type": "function"
    },
    {
      "inputs": [
        {
          "internalType": "uint256",
          "name": "_mintAmount",
          "type": "uint256"
        },
        {
          "internalType": "bytes32[]",
          "name": "_merkleProof",
          "type": "bytes32[]"
        }
      ],
      "name": "whitelistMint",
      "outputs": [],
      "stateMutability": "payable",
      "type": "function"
    },
    {
      "inputs": [],
      "name": "whitelistMintEnabled",
      "outputs": [
        {
          "internalType": "bool",
          "name": "",
          "type": "bool"
        }
      ],
      "stateMutability": "view",
      "type": "function"
    },
    {
      "inputs": [],
      "name": "withdraw",
      "outputs": [],
      "stateMutability": "nonpayable",
      "type": "function"
    }
  ],
  "bytecode": "0x60e0604052603660808181529062002f0c60a03980516200002991600c91602090910190620001ec565b5060408051808201909152600580825264173539b7b760d91b60209092019182526200005891600d91620001ec565b506013805462ffffff1916620100011790553480156200007757600080fd5b5060405162002f4238038062002f428339810160408190526200009a916200035f565b845185908590620000b3906002906020850190620001ec565b508051620000c9906003906020840190620001ec565b5050600160005550620000dc3362000107565b60016009556011839055620000f18262000159565b620000fc8162000168565b505050505062000441565b600880546001600160a01b038381166001600160a01b0319831681179093556040519116919082907f8be0079c531659141344cd1fd0a4f28419497f9722a3daafe3b4186f6b6457e090600090a35050565b620001636200018b565b601255565b620001726200018b565b80516200018790600e906020840190620001ec565b5050565b6008546001600160a01b03163314620001ea5760405162461bcd60e51b815260206004820181905260248201527f4f776e61626c653a2063616c6c6572206973206e6f7420746865206f776e6572604482015260640160405180910390fd5b565b828054620001fa9062000404565b90600052602060002090601f0160209004810192826200021e576000855562000269565b82601f106200023957805160ff191683800117855562000269565b8280016001018555821562000269579182015b82811115620002695782518255916020019190600101906200024c565b50620002779291506200027b565b5090565b5b808211156200027757600081556001016200027c565b634e487b7160e01b600052604160045260246000fd5b600082601f830112620002ba57600080fd5b81516001600160401b0380821115620002d757620002d762000292565b604051601f8301601f19908116603f0116810190828211818310171562000302576200030262000292565b816040528381526020925086838588010111156200031f57600080fd5b600091505b8382101562000343578582018301518183018401529082019062000324565b83821115620003555760008385830101525b9695505050505050565b600080600080600060a086880312156200037857600080fd5b85516001600160401b03808211156200039057600080fd5b6200039e89838a01620002a8565b96506020880151915080821115620003b557600080fd5b620003c389838a01620002a8565b955060408801519450606088015193506080880151915080821115620003e857600080fd5b50620003f788828901620002a8565b9150509295509295909350565b600181811c908216806200041957607f821691505b602082108114156200043b57634e487b7160e01b600052602260045260246000fd5b50919050565b612abb80620004516000396000f3fe6080604052600436106102935760003560e01c80637cb647591161015a578063b08a55f6116100c1578063d5abeb011161007a578063d5abeb01146107af578063db4bec44146107c5578063e0a80853146107f5578063e985e9c514610815578063efbd73f414610835578063f2fde38b1461085557600080fd5b8063b08a55f6146106ef578063b767a0981461070f578063b88d4fde1461072f578063c23dc68f1461074f578063c87b56dd1461077c578063d2cab0561461079c57600080fd5b806399a2557a1161011357806399a2557a146106515780639a1b288514610671578063a0712d6814610687578063a22cb4651461069a578063a45ba8e7146106ba578063b071401b146106cf57600080fd5b80637cb647591461059b5780637ec4a659146105bb5780638462151c146105db5780638da5cb5b1461060857806394354fd01461062657806395d89b411461063c57600080fd5b80633ccfd60b116101fe5780635c975abb116101b75780635c975abb146104f857806362b99ad4146105125780636352211e146105275780636caede3d1461054757806370a0823114610566578063715018a61461058657600080fd5b80633ccfd60b1461044157806342842e0e146104565780634fdd43cb1461047657806351830227146104965780635503a0e8146104b65780635bbb2177146104cb57600080fd5b806316c38b3c1161025057806316c38b3c1461039757806318160ddd146103b75780631950c2fc146103d557806323b872dd146103f55780632eb4a7ab1461041557806333573dc21461042b57600080fd5b806301ffc9a71461029857806306fdde03146102cd578063081812fc146102ef578063095ea7b31461032757806311b4a8321461034957806316ba10e014610377575b600080fd5b3480156102a457600080fd5b506102b86102b336600461228c565b610875565b60405190151581526020015b60405180910390f35b3480156102d957600080fd5b506102e26108c7565b6040516102c49190612301565b3480156102fb57600080fd5b5061030f61030a366004612314565b610959565b6040516001600160a01b0390911681526020016102c4565b34801561033357600080fd5b50610347610342366004612344565b61099d565b005b34801561035557600080fd5b50610369610364366004612314565b610a24565b6040519081526020016102c4565b34801561038357600080fd5b5061034761039236600461240b565b610a61565b3480156103a357600080fd5b506103476103b2366004612463565b610a80565b3480156103c357600080fd5b50610369600154600054036000190190565b3480156103e157600080fd5b506103476103f0366004612314565b610a9b565b34801561040157600080fd5b5061034761041036600461247e565b610aa8565b34801561042157600080fd5b50610369600a5481565b34801561043757600080fd5b50610369600f5481565b34801561044d57600080fd5b50610347610ab3565b34801561046257600080fd5b5061034761047136600461247e565b610b91565b34801561048257600080fd5b5061034761049136600461240b565b610bac565b3480156104a257600080fd5b506013546102b89062010000900460ff1681565b3480156104c257600080fd5b506102e2610bc7565b3480156104d757600080fd5b506104eb6104e63660046124ba565b610c55565b6040516102c4919061255f565b34801561050457600080fd5b506013546102b89060ff1681565b34801561051e57600080fd5b506102e2610d1b565b34801561053357600080fd5b5061030f610542366004612314565b610d28565b34801561055357600080fd5b506013546102b890610100900460ff1681565b34801561057257600080fd5b506103696105813660046125c9565b610d3a565b34801561059257600080fd5b50610347610d88565b3480156105a757600080fd5b506103476105b6366004612314565b610d9c565b3480156105c757600080fd5b506103476105d636600461240b565b610da9565b3480156105e757600080fd5b506105fb6105f63660046125c9565b610dc4565b6040516102c491906125e4565b34801561061457600080fd5b506008546001600160a01b031661030f565b34801561063257600080fd5b5061036960125481565b34801561064857600080fd5b506102e2610f11565b34801561065d57600080fd5b506105fb61066c36600461261c565b610f20565b34801561067d57600080fd5b5061036960105481565b610347610695366004612314565b6110e6565b3480156106a657600080fd5b506103476106b536600461264f565b6111af565b3480156106c657600080fd5b506102e2611245565b3480156106db57600080fd5b506103476106ea366004612314565b611252565b3480156106fb57600080fd5b5061034761070a366004612314565b61125f565b34801561071b57600080fd5b5061034761072a366004612463565b61126c565b34801561073b57600080fd5b5061034761074a366004612682565b61128e565b34801561075b57600080fd5b5061076f61076a366004612314565b6112d8565b6040516102c491906126fd565b34801561078857600080fd5b506102e2610797366004612314565b611392565b6103476107aa366004612732565b611501565b3480156107bb57600080fd5b5061036960115481565b3480156107d157600080fd5b506102b86107e03660046125c9565b600b6020526000908152604090205460ff1681565b34801561080157600080fd5b50610347610810366004612463565b6117dd565b34801561082157600080fd5b506102b86108303660046127b0565b611801565b34801561084157600080fd5b506103476108503660046127da565b61182f565b34801561086157600080fd5b506103476108703660046125c9565b6118ad565b60006001600160e01b031982166380ac58cd60e01b14806108a657506001600160e01b03198216635b5e139f60e01b145b806108c157506301ffc9a760e01b6001600160e01b03198316145b92915050565b6060600280546108d6906127fd565b80601f0160208091040260200160405190810160405280929190818152602001828054610902906127fd565b801561094f5780601f106109245761010080835404028352916020019161094f565b820191906000526020600020905b81548152906001019060200180831161093257829003601f168201915b5050505050905090565b600061096482611926565b610981576040516333d1c03960e21b815260040160405180910390fd5b506000908152600660205260409020546001600160a01b031690565b60006109a882610d28565b9050806001600160a01b0316836001600160a01b031614156109dd5760405163250fdee360e21b815260040160405180910390fd5b336001600160a01b03821614610a14576109f78133611801565b610a14576040516367d9dca160e11b815260040160405180910390fd5b610a1f83838361195f565b505050565b60006001821115610a5457601054610a3d60018461284e565b610a479190612865565b600f546108c19190612884565b5050600f5490565b919050565b610a696119bb565b8051610a7c90600d9060208401906121dd565b5050565b610a886119bb565b6013805460ff1916911515919091179055565b610aa36119bb565b601055565b610a1f838383611a15565b610abb6119bb565b60026009541415610b135760405162461bcd60e51b815260206004820152601f60248201527f5265656e7472616e637947756172643a207265656e7472616e742063616c6c0060448201526064015b60405180910390fd5b60026009556000610b2c6008546001600160a01b031690565b6001600160a01b03164760405160006040518083038185875af1925050503d8060008114610b76576040519150601f19603f3d011682016040523d82523d6000602084013e610b7b565b606091505b5050905080610b8957600080fd5b506001600955565b610a1f8383836040518060200160405280600081525061128e565b610bb46119bb565b8051610a7c90600e9060208401906121dd565b600d8054610bd4906127fd565b80601f0160208091040260200160405190810160405280929190818152602001828054610c00906127fd565b8015610c4d5780601f10610c2257610100808354040283529160200191610c4d565b820191906000526020600020905b815481529060010190602001808311610c3057829003601f168201915b505050505081565b80516060906000816001600160401b03811115610c7457610c7461236e565b604051908082528060200260200182016040528015610cbf57816020015b6040805160608101825260008082526020808301829052928201528252600019909201910181610c925790505b50905060005b828114610d1357610cee858281518110610ce157610ce161289c565b60200260200101516112d8565b828281518110610d0057610d0061289c565b6020908102919091010152600101610cc5565b509392505050565b600c8054610bd4906127fd565b6000610d3382611c00565b5192915050565b60006001600160a01b038216610d63576040516323d3ad8160e21b815260040160405180910390fd5b506001600160a01b03166000908152600560205260409020546001600160401b031690565b610d906119bb565b610d9a6000611d22565b565b610da46119bb565b600a55565b610db16119bb565b8051610a7c90600c9060208401906121dd565b60606000806000610dd485610d3a565b90506000816001600160401b03811115610df057610df061236e565b604051908082528060200260200182016040528015610e19578160200160208202803683370190505b509050610e3f604080516060810182526000808252602082018190529181019190915290565b60015b838614610f0557600081815260046020908152604091829020825160608101845290546001600160a01b0381168252600160a01b81046001600160401b031692820192909252600160e01b90910460ff16158015928201929092529250610ea857610efd565b81516001600160a01b031615610ebd57815194505b876001600160a01b0316856001600160a01b03161415610efd5780838780600101985081518110610ef057610ef061289c565b6020026020010181815250505b600101610e42565b50909695505050505050565b6060600380546108d6906127fd565b6060818310610f4257604051631960ccad60e11b815260040160405180910390fd5b600080546001851015610f5457600194505b80841115610f60578093505b6000610f6b87610d3a565b905084861015610f8a5785850381811015610f84578091505b50610f8e565b5060005b6000816001600160401b03811115610fa857610fa861236e565b604051908082528060200260200182016040528015610fd1578160200160208202803683370190505b50905081610fe45793506110df92505050565b6000610fef886112d8565b905060008160400151611000575080515b885b8881141580156110125750848714155b156110d357600081815260046020908152604091829020825160608101845290546001600160a01b0381168252600160a01b81046001600160401b031692820192909252600160e01b90910460ff16158015928201929092529350611076576110cb565b82516001600160a01b03161561108b57825191505b8a6001600160a01b0316826001600160a01b031614156110cb57808488806001019950815181106110be576110be61289c565b6020026020010181815250505b600101611002565b50505092835250909150505b9392505050565b806000811180156110f957506012548111155b6111155760405162461bcd60e51b8152600401610b0a906128b2565b6011548161112a600154600054036000190190565b6111349190612884565b11156111525760405162461bcd60e51b8152600401610b0a906128e0565b60135460ff16156111a55760405162461bcd60e51b815260206004820152601760248201527f54686520636f6e747261637420697320706175736564210000000000000000006044820152606401610b0a565b610a7c3383611d74565b6001600160a01b0382163314156111d95760405163b06307db60e01b815260040160405180910390fd5b3360008181526007602090815260408083206001600160a01b03871680855290835292819020805460ff191686151590811790915590519081529192917f17307eab39ab6107e8899845ad3d59bd9653f200f220920489ca2b5937696c31910160405180910390a35050565b600e8054610bd4906127fd565b61125a6119bb565b601255565b6112676119bb565b600f55565b6112746119bb565b601380549115156101000261ff0019909216919091179055565b611299848484611a15565b6001600160a01b0383163b156112d2576112b584848484611d8e565b6112d2576040516368d2bf6b60e11b815260040160405180910390fd5b50505050565b6040805160608082018352600080835260208084018290528385018290528451928301855281835282018190529281019290925290600183108061131e57506000548310155b156113295792915050565b50600082815260046020908152604091829020825160608101845290546001600160a01b0381168252600160a01b81046001600160401b031692820192909252600160e01b90910460ff1615801592820192909252906113895792915050565b6110df83611c00565b606061139d82611926565b6114015760405162461bcd60e51b815260206004820152602f60248201527f4552433732314d657461646174613a2055524920717565727920666f72206e6f60448201526e3732bc34b9ba32b73a103a37b5b2b760891b6064820152608401610b0a565b60135462010000900460ff166114a357600e805461141e906127fd565b80601f016020809104026020016040519081016040528092919081815260200182805461144a906127fd565b80156114975780601f1061146c57610100808354040283529160200191611497565b820191906000526020600020905b81548152906001019060200180831161147a57829003601f168201915b50505050509050919050565b60006114ad611e86565b905060008151116114cd57604051806020016040528060008152506110df565b806114d784611e95565b600d6040516020016114eb9392919061290e565b6040516020818303038152906040529392505050565b8260008111801561151457506012548111155b6115305760405162461bcd60e51b8152600401610b0a906128b2565b60115481611545600154600054036000190190565b61154f9190612884565b111561156d5760405162461bcd60e51b8152600401610b0a906128e0565b601354610100900460ff166115cf5760405162461bcd60e51b815260206004820152602260248201527f5468652077686974656c6973742073616c65206973206e6f7420656e61626c65604482015261642160f01b6064820152608401610b0a565b336000908152600b602052604090205460ff161561162f5760405162461bcd60e51b815260206004820152601860248201527f4164647265737320616c726561647920636c61696d65642100000000000000006044820152606401610b0a565b6040516bffffffffffffffffffffffff193360601b1660208201526000906034016040516020818303038152906040528051906020012090506116a984848080602002602001604051908101604052809392919081815260200183836020028082843760009201919091525050600a549150849050611f92565b6116e65760405162461bcd60e51b815260206004820152600e60248201526d496e76616c69642070726f6f662160901b6044820152606401610b0a565b600185111561175157346116fb60018761284e565b6010546117089190612865565b11156117515760405162461bcd60e51b8152602060048201526018602482015277125b98dbdc9c9958dd08115512081d985b1d59481cd95b9d60421b6044820152606401610b0a565b60018510156117b2573485600f546117699190612865565b11156117b25760405162461bcd60e51b8152602060048201526018602482015277125b98dbdc9c9958dd08115512081d985b1d59481cd95b9d60421b6044820152606401610b0a565b336000818152600b60205260409020805460ff191660011790556117d69086611d74565b5050505050565b6117e56119bb565b60138054911515620100000262ff000019909216919091179055565b6001600160a01b03918216600090815260076020908152604080832093909416825291909152205460ff1690565b8160008111801561184257506012548111155b61185e5760405162461bcd60e51b8152600401610b0a906128b2565b60115481611873600154600054036000190190565b61187d9190612884565b111561189b5760405162461bcd60e51b8152600401610b0a906128e0565b6118a36119bb565b610a1f8284611d74565b6118b56119bb565b6001600160a01b03811661191a5760405162461bcd60e51b815260206004820152602660248201527f4f776e61626c653a206e6577206f776e657220697320746865207a65726f206160448201526564647265737360d01b6064820152608401610b0a565b61192381611d22565b50565b60008160011115801561193a575060005482105b80156108c1575050600090815260046020526040902054600160e01b900460ff161590565b60008281526006602052604080822080546001600160a01b0319166001600160a01b0387811691821790925591518593918516917f8c5be1e5ebec7d5bd14f71427d1e84f3dd0314c0f7b2291e5b200ac8c7c3b92591a4505050565b6008546001600160a01b03163314610d9a5760405162461bcd60e51b815260206004820181905260248201527f4f776e61626c653a2063616c6c6572206973206e6f7420746865206f776e65726044820152606401610b0a565b6000611a2082611c00565b9050836001600160a01b031681600001516001600160a01b031614611a575760405162a1148160e81b815260040160405180910390fd5b6000336001600160a01b0386161480611a755750611a758533611801565b80611a90575033611a8584610959565b6001600160a01b0316145b905080611ab057604051632ce44b5f60e11b815260040160405180910390fd5b6001600160a01b038416611ad757604051633a954ecd60e21b815260040160405180910390fd5b611ae36000848761195f565b6001600160a01b038581166000908152600560209081526040808320805467ffffffffffffffff198082166001600160401b0392831660001901831617909255898616808652838620805493841693831660019081018416949094179055898652600490945282852080546001600160e01b031916909417600160a01b42909216919091021783558701808452922080549193909116611bb7576000548214611bb757805460208601516001600160401b0316600160a01b026001600160e01b03199091166001600160a01b038a16171781555b50505082846001600160a01b0316866001600160a01b03167fddf252ad1be2c89b69c2b068fc378daa952ba7f163c4a11628f55a4df523b3ef60405160405180910390a46117d6565b60408051606081018252600080825260208201819052918101919091528180600111611d0957600054811015611d0957600081815260046020908152604091829020825160608101845290546001600160a01b0381168252600160a01b81046001600160401b031692820192909252600160e01b90910460ff16151591810182905290611d075780516001600160a01b031615611c9e579392505050565b5060001901600081815260046020908152604091829020825160608101845290546001600160a01b038116808352600160a01b82046001600160401b031693830193909352600160e01b900460ff1615159281019290925215611d02579392505050565b611c9e565b505b604051636f96cda160e11b815260040160405180910390fd5b600880546001600160a01b038381166001600160a01b0319831681179093556040519116919082907f8be0079c531659141344cd1fd0a4f28419497f9722a3daafe3b4186f6b6457e090600090a35050565b610a7c828260405180602001604052806000815250611fa8565b604051630a85bd0160e11b81526000906001600160a01b0385169063150b7a0290611dc39033908990889088906004016129d2565b602060405180830381600087803b158015611ddd57600080fd5b505af1925050508015611e0d575060408051601f3d908101601f19168201909252611e0a91810190612a0f565b60015b611e68573d808015611e3b576040519150601f19603f3d011682016040523d82523d6000602084013e611e40565b606091505b508051611e60576040516368d2bf6b60e11b815260040160405180910390fd5b805181602001fd5b6001600160e01b031916630a85bd0160e11b1490505b949350505050565b6060600c80546108d6906127fd565b606081611eb95750506040805180820190915260018152600360fc1b602082015290565b8160005b8115611ee35780611ecd81612a2c565b9150611edc9050600a83612a5d565b9150611ebd565b6000816001600160401b03811115611efd57611efd61236e565b6040519080825280601f01601f191660200182016040528015611f27576020820181803683370190505b5090505b8415611e7e57611f3c60018361284e565b9150611f49600a86612a71565b611f54906030612884565b60f81b818381518110611f6957611f6961289c565b60200101906001600160f81b031916908160001a905350611f8b600a86612a5d565b9450611f2b565b600082611f9f858461216c565b14949350505050565b6000546001600160a01b038416611fd157604051622e076360e81b815260040160405180910390fd5b82611fef5760405163b562e8dd60e01b815260040160405180910390fd5b6001600160a01b038416600081815260056020908152604080832080546fffffffffffffffffffffffffffffffff1981166001600160401b038083168b0181169182176801000000000000000067ffffffffffffffff1990941690921783900481168b01811690920217909155858452600490925290912080546001600160e01b0319168317600160a01b42909316929092029190911790558190818501903b15612117575b60405182906001600160a01b038816906000907fddf252ad1be2c89b69c2b068fc378daa952ba7f163c4a11628f55a4df523b3ef908290a46120e06000878480600101955087611d8e565b6120fd576040516368d2bf6b60e11b815260040160405180910390fd5b80821061209557826000541461211257600080fd5b61215c565b5b6040516001830192906001600160a01b038816906000907fddf252ad1be2c89b69c2b068fc378daa952ba7f163c4a11628f55a4df523b3ef908290a4808210612118575b5060009081556112d29085838684565b600081815b8451811015610d135761219d828683815181106121905761219061289c565b60200260200101516121b1565b9150806121a981612a2c565b915050612171565b60008183106121cd5760008281526020849052604090206110df565b5060009182526020526040902090565b8280546121e9906127fd565b90600052602060002090601f01602090048101928261220b5760008555612251565b82601f1061222457805160ff1916838001178555612251565b82800160010185558215612251579182015b82811115612251578251825591602001919060010190612236565b5061225d929150612261565b5090565b5b8082111561225d5760008155600101612262565b6001600160e01b03198116811461192357600080fd5b60006020828403121561229e57600080fd5b81356110df81612276565b60005b838110156122c45781810151838201526020016122ac565b838111156112d25750506000910152565b600081518084526122ed8160208601602086016122a9565b601f01601f19169290920160200192915050565b6020815260006110df60208301846122d5565b60006020828403121561232657600080fd5b5035919050565b80356001600160a01b0381168114610a5c57600080fd5b6000806040838503121561235757600080fd5b6123608361232d565b946020939093013593505050565b634e487b7160e01b600052604160045260246000fd5b604051601f8201601f191681016001600160401b03811182821017156123ac576123ac61236e565b604052919050565b60006001600160401b038311156123cd576123cd61236e565b6123e0601f8401601f1916602001612384565b90508281528383830111156123f457600080fd5b828260208301376000602084830101529392505050565b60006020828403121561241d57600080fd5b81356001600160401b0381111561243357600080fd5b8201601f8101841361244457600080fd5b611e7e848235602084016123b4565b80358015158114610a5c57600080fd5b60006020828403121561247557600080fd5b6110df82612453565b60008060006060848603121561249357600080fd5b61249c8461232d565b92506124aa6020850161232d565b9150604084013590509250925092565b600060208083850312156124cd57600080fd5b82356001600160401b03808211156124e457600080fd5b818501915085601f8301126124f857600080fd5b81358181111561250a5761250a61236e565b8060051b915061251b848301612384565b818152918301840191848101908884111561253557600080fd5b938501935b838510156125535784358252938501939085019061253a565b98975050505050505050565b6020808252825182820181905260009190848201906040850190845b81811015610f05576125b683855180516001600160a01b031682526020808201516001600160401b0316908301526040908101511515910152565b928401926060929092019160010161257b565b6000602082840312156125db57600080fd5b6110df8261232d565b6020808252825182820181905260009190848201906040850190845b81811015610f0557835183529284019291840191600101612600565b60008060006060848603121561263157600080fd5b61263a8461232d565b95602085013595506040909401359392505050565b6000806040838503121561266257600080fd5b61266b8361232d565b915061267960208401612453565b90509250929050565b6000806000806080858703121561269857600080fd5b6126a18561232d565b93506126af6020860161232d565b92506040850135915060608501356001600160401b038111156126d157600080fd5b8501601f810187136126e257600080fd5b6126f1878235602084016123b4565b91505092959194509250565b81516001600160a01b031681526020808301516001600160401b031690820152604080830151151590820152606081016108c1565b60008060006040848603121561274757600080fd5b8335925060208401356001600160401b038082111561276557600080fd5b818601915086601f83011261277957600080fd5b81358181111561278857600080fd5b8760208260051b850101111561279d57600080fd5b6020830194508093505050509250925092565b600080604083850312156127c357600080fd5b6127cc8361232d565b91506126796020840161232d565b600080604083850312156127ed57600080fd5b823591506126796020840161232d565b600181811c9082168061281157607f821691505b6020821081141561283257634e487b7160e01b600052602260045260246000fd5b50919050565b634e487b7160e01b600052601160045260246000fd5b60008282101561286057612860612838565b500390565b600081600019048311821515161561287f5761287f612838565b500290565b6000821982111561289757612897612838565b500190565b634e487b7160e01b600052603260045260246000fd5b602080825260149082015273496e76616c6964206d696e7420616d6f756e742160601b604082015260600190565b6020808252601490820152734d617820737570706c792065786365656465642160601b604082015260600190565b6000845160206129218285838a016122a9565b8551918401916129348184848a016122a9565b8554920191600090600181811c908083168061295157607f831692505b85831081141561296f57634e487b7160e01b85526022600452602485fd5b8080156129835760018114612994576129c1565b60ff198516885283880195506129c1565b60008b81526020902060005b858110156129b95781548a8201529084019088016129a0565b505083880195505b50939b9a5050505050505050505050565b6001600160a01b0385811682528416602082015260408101839052608060608201819052600090612a05908301846122d5565b9695505050505050565b600060208284031215612a2157600080fd5b81516110df81612276565b6000600019821415612a4057612a40612838565b5060010190565b634e487b7160e01b600052601260045260246000fd5b600082612a6c57612a6c612a47565b500490565b600082612a8057612a80612a47565b50069056fea26469706673582212206e666d273929775d62df7b9175db7de2bd6f867a984660e9f371ee9442ee131364736f6c63430008090033697066733a2f2f516d5976654d766865436757644d386b43594b3658394c74767250514739777a38756232796278357a41787732572f",
  "linkReferences": {},
  "deployedLinkReferences": {}
}